{
  "contractName": "Ebay",
  "abi": [
    {
      "inputs": [
        {
          "internalType": "uint256",
          "name": "",
          "type": "uint256"
        }
      ],
      "name": "auctions",
      "outputs": [
        {
          "internalType": "uint256",
          "name": "id",
          "type": "uint256"
        },
        {
          "internalType": "address payable",
          "name": "seller",
          "type": "address"
        },
        {
          "internalType": "string",
          "name": "name",
          "type": "string"
        },
        {
          "internalType": "string",
          "name": "description",
          "type": "string"
        },
        {
          "internalType": "uint256",
          "name": "min",
          "type": "uint256"
        },
        {
          "internalType": "uint256",
          "name": "end",
          "type": "uint256"
        },
        {
          "internalType": "uint256",
          "name": "bestOfferId",
          "type": "uint256"
        },
        {
          "internalType": "uint256",
          "name": "bestOffer",
          "type": "uint256"
        }
      ],
      "stateMutability": "view",
      "type": "function"
    },
    {
      "inputs": [
        {
          "internalType": "string",
          "name": "_name",
          "type": "string"
        },
        {
          "internalType": "string",
          "name": "_description",
          "type": "string"
        },
        {
          "internalType": "uint256",
          "name": "_min",
          "type": "uint256"
        },
        {
          "internalType": "uint256",
          "name": "_duration",
          "type": "uint256"
        }
      ],
      "name": "createAuction",
      "outputs": [],
      "stateMutability": "nonpayable",
      "type": "function"
    },
    {
      "inputs": [
        {
          "internalType": "uint256",
          "name": "_auctionId",
          "type": "uint256"
        }
      ],
      "name": "createOffer",
      "outputs": [],
      "stateMutability": "payable",
      "type": "function"
    },
    {
      "inputs": [
        {
          "internalType": "uint256",
          "name": "_auctionId",
          "type": "uint256"
        }
      ],
      "name": "trade",
      "outputs": [],
      "stateMutability": "nonpayable",
      "type": "function"
    },
    {
      "inputs": [],
      "name": "getAuctions",
      "outputs": [
        {
          "components": [
            {
              "internalType": "uint256",
              "name": "id",
              "type": "uint256"
            },
            {
              "internalType": "address payable",
              "name": "seller",
              "type": "address"
            },
            {
              "internalType": "string",
              "name": "name",
              "type": "string"
            },
            {
              "internalType": "string",
              "name": "description",
              "type": "string"
            },
            {
              "internalType": "uint256",
              "name": "min",
              "type": "uint256"
            },
            {
              "internalType": "uint256",
              "name": "end",
              "type": "uint256"
            },
            {
              "internalType": "uint256",
              "name": "bestOfferId",
              "type": "uint256"
            },
            {
              "internalType": "uint256",
              "name": "bestOffer",
              "type": "uint256"
            },
            {
              "internalType": "uint256[]",
              "name": "offerIds",
              "type": "uint256[]"
            }
          ],
          "internalType": "struct Ebay.Auction[]",
          "name": "",
          "type": "tuple[]"
        }
      ],
      "stateMutability": "view",
      "type": "function"
    },
    {
      "inputs": [
        {
          "internalType": "address",
          "name": "_user",
          "type": "address"
        }
      ],
      "name": "getUserAuctions",
      "outputs": [
        {
          "components": [
            {
              "internalType": "uint256",
              "name": "id",
              "type": "uint256"
            },
            {
              "internalType": "address payable",
              "name": "seller",
              "type": "address"
            },
            {
              "internalType": "string",
              "name": "name",
              "type": "string"
            },
            {
              "internalType": "string",
              "name": "description",
              "type": "string"
            },
            {
              "internalType": "uint256",
              "name": "min",
              "type": "uint256"
            },
            {
              "internalType": "uint256",
              "name": "end",
              "type": "uint256"
            },
            {
              "internalType": "uint256",
              "name": "bestOfferId",
              "type": "uint256"
            },
            {
              "internalType": "uint256",
              "name": "bestOffer",
              "type": "uint256"
            },
            {
              "internalType": "uint256[]",
              "name": "offerIds",
              "type": "uint256[]"
            }
          ],
          "internalType": "struct Ebay.Auction[]",
          "name": "",
          "type": "tuple[]"
        }
      ],
      "stateMutability": "view",
      "type": "function"
    },
    {
      "inputs": [
        {
          "internalType": "address",
          "name": "_user",
          "type": "address"
        }
      ],
      "name": "getUserOffers",
      "outputs": [
        {
          "components": [
            {
              "internalType": "uint256",
              "name": "id",
              "type": "uint256"
            },
            {
              "internalType": "uint256",
              "name": "auctionId",
              "type": "uint256"
            },
            {
              "internalType": "address payable",
              "name": "buyer",
              "type": "address"
            },
            {
              "internalType": "uint256",
              "name": "price",
              "type": "uint256"
            }
          ],
          "internalType": "struct Ebay.Offer[]",
          "name": "",
          "type": "tuple[]"
        }
      ],
      "stateMutability": "view",
      "type": "function"
    }
  ],
  "bytecode": "0x6080604052600160045534801561001557600080fd5b506120aa806100256000396000f3fe60806040526004361061008d576000357c010000000000000000000000000000000000000000000000000000000090048063a269993d1161006b578063a269993d1461013c578063d7c0691914610158578063df1dd82614610183578063ff3ad0b4146101ac5761008d565b8063571a26a01461009257806361e2db55146100d6578063661d2c2c146100ff575b600080fd5b34801561009e57600080fd5b506100b960048036038101906100b49190611709565b6101e9565b6040516100cd989796959493929190611ced565b60405180910390f35b3480156100e257600080fd5b506100fd60048036038101906100f8919061166e565b610361565b005b34801561010b57600080fd5b5061012660048036038101906101219190611645565b6106c8565b6040516101339190611c2b565b60405180910390f35b61015660048036038101906101519190611709565b6108db565b005b34801561016457600080fd5b5061016d610b76565b60405161017a9190611c09565b60405180910390f35b34801561018f57600080fd5b506101aa60048036038101906101a59190611709565b610ea2565b005b3480156101b857600080fd5b506101d360048036038101906101ce9190611645565b61109e565b6040516101e09190611c09565b60405180910390f35b60006020528060005260406000206000915090508060000154908060010160009054906101000a900473ffffffffffffffffffffffffffffffffffffffff169080600201805461023890611f5c565b80601f016020809104026020016040519081016040528092919081815260200182805461026490611f5c565b80156102b15780601f10610286576101008083540402835291602001916102b1565b820191906000526020600020905b81548152906001019060200180831161029457829003601f168201915b5050505050908060030180546102c690611f5c565b80601f01602080910402602001604051908101604052809291908181526020018280546102f290611f5c565b801561033f5780601f106103145761010080835404028352916020019161033f565b820191906000526020600020905b81548152906001019060200180831161032257829003601f168201915b5050505050908060040154908060050154908060060154908060070154905088565b600082116103a4576040517f08c379a000000000000000000000000000000000000000000000000000000000815260040161039b90611ccd565b60405180910390fd5b62015180811180156103b85750620d2f0081105b6103f7576040517f08c379a00000000000000000000000000000000000000000000000000000000081526004016103ee90611c4d565b60405180910390fd5b60008067ffffffffffffffff811115610439577f4e487b7100000000000000000000000000000000000000000000000000000000600052604160045260246000fd5b6040519080825280602002602001820160405280156104675781602001602082028036833780820191505090505b50905060405180610120016040528060045481526020013373ffffffffffffffffffffffffffffffffffffffff16815260200188888080601f016020809104026020016040519081016040528093929190818152602001838380828437600081840152601f19601f82011690508083019250505050505050815260200186868080601f016020809104026020016040519081016040528093929190818152602001838380828437600081840152601f19601f82011690508083019250505050505050815260200184815260200183426105409190611e51565b815260200160008152602001600081526020018281525060008060045481526020019081526020016000206000820151816000015560208201518160010160006101000a81548173ffffffffffffffffffffffffffffffffffffffff021916908373ffffffffffffffffffffffffffffffffffffffff16021790555060408201518160020190805190602001906105d8929190611441565b5060608201518160030190805190602001906105f5929190611441565b506080820151816004015560a0820151816005015560c0820151816006015560e0820151816007015561010082015181600801908051906020019061063b9291906114c7565b50905050600260003373ffffffffffffffffffffffffffffffffffffffff1673ffffffffffffffffffffffffffffffffffffffff1681526020019081526020016000206004549080600181540180825580915050600190039060005260206000200160009091909190915055600460008154809291906106ba90611f8e565b919050555050505050505050565b60606000600360008473ffffffffffffffffffffffffffffffffffffffff1673ffffffffffffffffffffffffffffffffffffffff16815260200190815260200160002090506000818054905067ffffffffffffffff811115610753577f4e487b7100000000000000000000000000000000000000000000000000000000600052604160045260246000fd5b60405190808252806020026020018201604052801561078c57816020015b610779611514565b8152602001906001900390816107715790505b50905060005b82805490508110156108d05760008382815481106107d9577f4e487b7100000000000000000000000000000000000000000000000000000000600052603260045260246000fd5b906000526020600020015490506001600082815260200190815260200160002060405180608001604052908160008201548152602001600182015481526020016002820160009054906101000a900473ffffffffffffffffffffffffffffffffffffffff1673ffffffffffffffffffffffffffffffffffffffff1673ffffffffffffffffffffffffffffffffffffffff1681526020016003820154815250508383815181106108b1577f4e487b7100000000000000000000000000000000000000000000000000000000600052603260045260246000fd5b60200260200101819052505080806108c890611f8e565b915050610792565b508092505050919050565b806000811180156108ed575060045481105b61092c576040517f08c379a000000000000000000000000000000000000000000000000000000000815260040161092390611c8d565b60405180910390fd5b60008060008481526020019081526020016000209050600060016000836006015481526020019081526020016000209050816005015442106109a3576040517f08c379a000000000000000000000000000000000000000000000000000000000815260040161099a90611c6d565b60405180910390fd5b816004015434101580156109ba5750806003015434115b6109f9576040517f08c379a00000000000000000000000000000000000000000000000000000000081526004016109f090611cad565b60405180910390fd5b6005548260060181905550348260070181905550816008016005549080600181540180825580915050600190039060005260206000200160009091909190915055604051806080016040528060055481526020018581526020013373ffffffffffffffffffffffffffffffffffffffff16815260200134815250600160006005548152602001908152602001600020600082015181600001556020820151816001015560408201518160020160006101000a81548173ffffffffffffffffffffffffffffffffffffffff021916908373ffffffffffffffffffffffffffffffffffffffff16021790555060608201518160030155905050600360003373ffffffffffffffffffffffffffffffffffffffff1673ffffffffffffffffffffffffffffffffffffffff168152602001908152602001600020600554908060018154018082558091505060019003906000526020600020016000909190919091505560056000815480929190610b6b90611f8e565b919050555050505050565b606060006001600454610b899190611ea7565b67ffffffffffffffff811115610bc8577f4e487b7100000000000000000000000000000000000000000000000000000000600052604160045260246000fd5b604051908082528060200260200182016040528015610c0157816020015b610bee611552565b815260200190600190039081610be65790505b5090506000600190505b600454811015610e9a5760008082815260200190815260200160002060405180610120016040529081600082015481526020016001820160009054906101000a900473ffffffffffffffffffffffffffffffffffffffff1673ffffffffffffffffffffffffffffffffffffffff1673ffffffffffffffffffffffffffffffffffffffff168152602001600282018054610ca390611f5c565b80601f0160208091040260200160405190810160405280929190818152602001828054610ccf90611f5c565b8015610d1c5780601f10610cf157610100808354040283529160200191610d1c565b820191906000526020600020905b815481529060010190602001808311610cff57829003601f168201915b50505050508152602001600382018054610d3590611f5c565b80601f0160208091040260200160405190810160405280929190818152602001828054610d6190611f5c565b8015610dae5780601f10610d8357610100808354040283529160200191610dae565b820191906000526020600020905b815481529060010190602001808311610d9157829003601f168201915b505050505081526020016004820154815260200160058201548152602001600682015481526020016007820154815260200160088201805480602002602001604051908101604052809291908181526020018280548015610e2e57602002820191906000526020600020905b815481526020019060010190808311610e1a575b50505050508152505082600183610e459190611ea7565b81518110610e7c577f4e487b7100000000000000000000000000000000000000000000000000000000600052603260045260246000fd5b60200260200101819052508080610e9290611f8e565b915050610c0b565b508091505090565b80600081118015610eb4575060045481105b610ef3576040517f08c379a0000000000000000000000000000000000000000000000000000000008152600401610eea90611c8d565b60405180910390fd5b6000806000848152602001908152602001600020905060006001600083600601548152602001908152602001600020905060005b8260080180549050811015611028576000836008018281548110610f74577f4e487b7100000000000000000000000000000000000000000000000000000000600052603260045260246000fd5b90600052602060002001549050836006015481146110145760006001600083815260200190815260200160002090508060020160009054906101000a900473ffffffffffffffffffffffffffffffffffffffff1673ffffffffffffffffffffffffffffffffffffffff166108fc82600301549081150290604051600060405180830381858888f19350505050158015611011573d6000803e3d6000fd5b50505b50808061102090611f8e565b915050610f27565b508160010160009054906101000a900473ffffffffffffffffffffffffffffffffffffffff1673ffffffffffffffffffffffffffffffffffffffff166108fc82600301549081150290604051600060405180830381858888f19350505050158015611097573d6000803e3d6000fd5b5050505050565b60606000600260008473ffffffffffffffffffffffffffffffffffffffff1673ffffffffffffffffffffffffffffffffffffffff16815260200190815260200160002090506000818054905067ffffffffffffffff811115611129577f4e487b7100000000000000000000000000000000000000000000000000000000600052604160045260246000fd5b60405190808252806020026020018201604052801561116257816020015b61114f611552565b8152602001906001900390816111475790505b50905060005b82805490508110156114365760008382815481106111af577f4e487b7100000000000000000000000000000000000000000000000000000000600052603260045260246000fd5b9060005260206000200154905060008082815260200190815260200160002060405180610120016040529081600082015481526020016001820160009054906101000a900473ffffffffffffffffffffffffffffffffffffffff1673ffffffffffffffffffffffffffffffffffffffff1673ffffffffffffffffffffffffffffffffffffffff16815260200160028201805461124a90611f5c565b80601f016020809104026020016040519081016040528092919081815260200182805461127690611f5c565b80156112c35780601f10611298576101008083540402835291602001916112c3565b820191906000526020600020905b8154815290600101906020018083116112a657829003601f168201915b505050505081526020016003820180546112dc90611f5c565b80601f016020809104026020016040519081016040528092919081815260200182805461130890611f5c565b80156113555780601f1061132a57610100808354040283529160200191611355565b820191906000526020600020905b81548152906001019060200180831161133857829003601f168201915b5050505050815260200160048201548152602001600582015481526020016006820154815260200160078201548152602001600882018054806020026020016040519081016040528092919081815260200182805480156113d557602002820191906000526020600020905b8154815260200190600101908083116113c1575b505050505081525050838381518110611417577f4e487b7100000000000000000000000000000000000000000000000000000000600052603260045260246000fd5b602002602001018190525050808061142e90611f8e565b915050611168565b508092505050919050565b82805461144d90611f5c565b90600052602060002090601f01602090048101928261146f57600085556114b6565b82601f1061148857805160ff19168380011785556114b6565b828001600101855582156114b6579182015b828111156114b557825182559160200191906001019061149a565b5b5090506114c391906115b4565b5090565b828054828255906000526020600020908101928215611503579160200282015b828111156115025782518255916020019190600101906114e7565b5b50905061151091906115b4565b5090565b60405180608001604052806000815260200160008152602001600073ffffffffffffffffffffffffffffffffffffffff168152602001600081525090565b60405180610120016040528060008152602001600073ffffffffffffffffffffffffffffffffffffffff168152602001606081526020016060815260200160008152602001600081526020016000815260200160008152602001606081525090565b5b808211156115cd5760008160009055506001016115b5565b5090565b6000813590506115e081612046565b92915050565b60008083601f8401126115f857600080fd5b8235905067ffffffffffffffff81111561161157600080fd5b60208301915083600182028301111561162957600080fd5b9250929050565b60008135905061163f8161205d565b92915050565b60006020828403121561165757600080fd5b6000611665848285016115d1565b91505092915050565b6000806000806000806080878903121561168757600080fd5b600087013567ffffffffffffffff8111156116a157600080fd5b6116ad89828a016115e6565b9650965050602087013567ffffffffffffffff8111156116cc57600080fd5b6116d889828a016115e6565b945094505060406116eb89828a01611630565b92505060606116fc89828a01611630565b9150509295509295509295565b60006020828403121561171b57600080fd5b600061172984828501611630565b91505092915050565b600061173e8383611ac3565b905092915050565b60006117528383611b96565b60808301905092915050565b600061176a8383611beb565b60208301905092915050565b61177f81611eed565b82525050565b61178e81611eed565b82525050565b600061179f82611da9565b6117a98185611dfc565b9350836020820285016117bb85611d79565b8060005b858110156117f757848403895281516117d88582611732565b94506117e383611dd5565b925060208a019950506001810190506117bf565b50829750879550505050505092915050565b600061181482611db4565b61181e8185611e0d565b935061182983611d89565b8060005b8381101561185a5781516118418882611746565b975061184c83611de2565b92505060018101905061182d565b5085935050505092915050565b600061187282611dbf565b61187c8185611e1e565b935061188783611d99565b8060005b838110156118b857815161189f888261175e565b97506118aa83611def565b92505060018101905061188b565b5085935050505092915050565b60006118d082611dca565b6118da8185611e2f565b93506118ea818560208601611f29565b6118f381612035565b840191505092915050565b600061190982611dca565b6119138185611e40565b9350611923818560208601611f29565b61192c81612035565b840191505092915050565b6000611944602f83611e40565b91507f4475726174696f6e206d75737420626520636f6d70726973656420626574776560008301527f656e203120746f203130206461797300000000000000000000000000000000006020830152604082019050919050565b60006119aa601183611e40565b91507f41756374696f6e2068617320656e6465640000000000000000000000000000006000830152602082019050919050565b60006119ea601683611e40565b91507f41756374696f6e20646f6573206e6f74206578697374000000000000000000006000830152602082019050919050565b6000611a2a603683611e40565b91507f4d73672e76616c7565206d75737420626520686967686572207468616e206d6960008301527f6e206f6666657220616e642062657374206f66666572000000000000000000006020830152604082019050919050565b6000611a90601a83611e40565b91507f4d696e206d7573742062652067726561746572207468616e20300000000000006000830152602082019050919050565b600061012083016000830151611adc6000860182611beb565b506020830151611aef6020860182611776565b5060408301518482036040860152611b0782826118c5565b91505060608301518482036060860152611b2182826118c5565b9150506080830151611b366080860182611beb565b5060a0830151611b4960a0860182611beb565b5060c0830151611b5c60c0860182611beb565b5060e0830151611b6f60e0860182611beb565b50610100830151848203610100860152611b898282611867565b9150508091505092915050565b608082016000820151611bac6000850182611beb565b506020820151611bbf6020850182611beb565b506040820151611bd26040850182611776565b506060820151611be56060850182611beb565b50505050565b611bf481611f1f565b82525050565b611c0381611f1f565b82525050565b60006020820190508181036000830152611c238184611794565b905092915050565b60006020820190508181036000830152611c458184611809565b905092915050565b60006020820190508181036000830152611c6681611937565b9050919050565b60006020820190508181036000830152611c868161199d565b9050919050565b60006020820190508181036000830152611ca6816119dd565b9050919050565b60006020820190508181036000830152611cc681611a1d565b9050919050565b60006020820190508181036000830152611ce681611a83565b9050919050565b600061010082019050611d03600083018b611bfa565b611d10602083018a611785565b8181036040830152611d2281896118fe565b90508181036060830152611d3681886118fe565b9050611d456080830187611bfa565b611d5260a0830186611bfa565b611d5f60c0830185611bfa565b611d6c60e0830184611bfa565b9998505050505050505050565b6000819050602082019050919050565b6000819050602082019050919050565b6000819050602082019050919050565b600081519050919050565b600081519050919050565b600081519050919050565b600081519050919050565b6000602082019050919050565b6000602082019050919050565b6000602082019050919050565b600082825260208201905092915050565b600082825260208201905092915050565b600082825260208201905092915050565b600082825260208201905092915050565b600082825260208201905092915050565b6000611e5c82611f1f565b9150611e6783611f1f565b9250827fffffffffffffffffffffffffffffffffffffffffffffffffffffffffffffffff03821115611e9c57611e9b611fd7565b5b828201905092915050565b6000611eb282611f1f565b9150611ebd83611f1f565b925082821015611ed057611ecf611fd7565b5b828203905092915050565b6000611ee682611eff565b9050919050565b6000611ef882611eff565b9050919050565b600073ffffffffffffffffffffffffffffffffffffffff82169050919050565b6000819050919050565b60005b83811015611f47578082015181840152602081019050611f2c565b83811115611f56576000848401525b50505050565b60006002820490506001821680611f7457607f821691505b60208210811415611f8857611f87612006565b5b50919050565b6000611f9982611f1f565b91507fffffffffffffffffffffffffffffffffffffffffffffffffffffffffffffffff821415611fcc57611fcb611fd7565b5b600182019050919050565b7f4e487b7100000000000000000000000000000000000000000000000000000000600052601160045260246000fd5b7f4e487b7100000000000000000000000000000000000000000000000000000000600052602260045260246000fd5b6000601f19601f8301169050919050565b61204f81611edb565b811461205a57600080fd5b50565b61206681611f1f565b811461207157600080fd5b5056fea2646970667358221220cfca1516d4c1a8ecb8b6f4754f43495d2ff790c48d1be5850d0428ccf061726e64736f6c63430008000033",
  "immutableReferences": {},
  "source": "// SPDX-License-Identifier: MIT\npragma solidity ^0.8.0;\n\ncontract Ebay {\n    struct Auction {\n        uint256 id;\n        address payable seller;\n        string name;\n        string description;\n        uint256 min;\n        uint256 end;\n        uint256 bestOfferId;\n        uint256 bestOffer;\n        uint256[] offerIds;\n    }\n\n    struct Offer {\n        uint256 id;\n        uint256 auctionId;\n        address payable buyer;\n        uint256 price;\n    }\n    mapping(uint256 => Auction) public auctions;\n    mapping(uint256 => Offer) private offers;\n    mapping(address => uint256[]) private userAuctions;\n    mapping(address => uint256[]) private userOffers;\n    uint256 private nextAuctionId = 1;\n    uint256 private nextOfferId;\n\n    function createAuction(\n        string calldata _name,\n        string calldata _description,\n        uint256 _min,\n        uint256 _duration\n    ) external {\n        require(_min > 0, \"Min must be greater than 0\");\n        require(\n            _duration > 86400 && _duration < 864000,\n            \"Duration must be comprised between 1 to 10 days\"\n        );\n        uint256[] memory offerIds = new uint256[](0);\n        auctions[nextAuctionId] = Auction(\n            nextAuctionId,\n            payable(msg.sender),\n            _name,\n            _description,\n            _min,\n            block.timestamp + _duration,\n            0,\n            0,\n            offerIds\n        );\n        userAuctions[msg.sender].push(nextAuctionId);\n        nextAuctionId++;\n    }\n\n    function createOffer(uint256 _auctionId)\n        external\n        payable\n        auctionExists(_auctionId)\n    {\n        Auction storage auction = auctions[_auctionId];\n        Offer storage bestOffer = offers[auction.bestOfferId];\n        require(block.timestamp < auction.end, \"Auction has ended\");\n        require(\n            msg.value >= auction.min && msg.value > bestOffer.price,\n            \"Msg.value must be higher than min offer and best offer\"\n        );\n        auction.bestOfferId = nextOfferId;\n        auction.bestOffer = msg.value;\n        auction.offerIds.push(nextOfferId);\n        offers[nextOfferId] = Offer(\n            nextOfferId,\n            _auctionId,\n            payable(msg.sender),\n            msg.value\n        );\n        userOffers[msg.sender].push(nextOfferId);\n        nextOfferId++;\n    }\n\n    function trade(uint256 _auctionId) external auctionExists(_auctionId) {\n        Auction storage auction = auctions[_auctionId];\n        Offer storage bestOffer = offers[auction.bestOfferId];\n        for (uint256 i = 0; i < auction.offerIds.length; i++) {\n            uint256 offerId = auction.offerIds[i];\n            if (offerId != auction.bestOfferId) {\n                Offer storage offer = offers[offerId];\n                offer.buyer.transfer(offer.price);\n            }\n        }\n        auction.seller.transfer(bestOffer.price);\n    }\n\n    function getAuctions() external view returns (Auction[] memory) {\n        Auction[] memory _auctions = new Auction[](nextAuctionId - 1);\n        for (uint256 i = 1; i < nextAuctionId; i++) {\n            _auctions[i - 1] = auctions[i];\n        }\n        return _auctions;\n    }\n\n    function getUserAuctions(address _user)\n        external\n        view\n        returns (Auction[] memory)\n    {\n        uint256[] storage userAuctionIds = userAuctions[_user];\n        Auction[] memory _auctions = new Auction[](userAuctionIds.length);\n        for (uint256 i = 0; i < userAuctionIds.length; i++) {\n            uint256 auctionId = userAuctionIds[i];\n            _auctions[i] = auctions[auctionId];\n        }\n        return _auctions;\n    }\n\n    function getUserOffers(address _user)\n        external\n        view\n        returns (Offer[] memory)\n    {\n        uint256[] storage userOfferIds = userOffers[_user];\n        Offer[] memory _offers = new Offer[](userOfferIds.length);\n        for (uint256 i = 0; i < userOfferIds.length; i++) {\n            uint256 offerId = userOfferIds[i];\n            _offers[i] = offers[offerId];\n        }\n        return _offers;\n    }\n\n    modifier auctionExists(uint256 _auctionId) {\n        require(\n            _auctionId > 0 && _auctionId < nextAuctionId,\n            \"Auction does not exist\"\n        );\n        _;\n    }\n}\n",
  "sourcePath": "/Users/jasonha/Desktop/demos/smart_contracts/ebay/smart_contract/contracts/Ebay.sol",
  "compiler": {
    "name": "solc",
    "version": "0.8.0+commit.c7dfd78e.Emscripten.clang"
  },
  "schemaVersion": "3.4.5",
  "updatedAt": "2022-03-19T22:40:27.183Z",
  "devdoc": {
    "kind": "dev",
    "methods": {},
    "version": 1
  },
  "userdoc": {
    "kind": "user",
    "methods": {},
    "version": 1
  }
}